:020000040000FA
:06000000BAEF20F012002F
:020006001200E6
:06000800D9EF1DF012000B
:02000E000000F0
:020010000000EE
:060018005BEF1DF0120079
:02001E000900D7
:10002000E94200006101000028000000CE4200000B
:10003000650F00001B0000000E000000F70000002C
:10004000040000006D42000000010000610000009B
:10005000FF410000800000006E000000A53A000093
:10006000FD00000001000000EC410000E301000081
:1000700013000000CC410000A90100002000000096
:0C008000AC4100008901000020000000DD
:04008C00D9CFE6FFE3
:10009000E1CFD9FF020EE126DE6ADD6A58D8E80E0C
:1000A000E66E030EE66E0CD8E552E55293EC1EF0B8
:1000B00046EC16F061EC11F058D994EC0FF0F6D73D
:1000C000D9CFE6FFE1CFD9FF040EE126DE6ADD6A73
:1000D000DECF10F0DDCF11F0FD0EDBCF12F0FE0E03
:1000E000DBCF13F011501318E8AE02D0133404D054
:1000F0001250105C135011581DE2020EDB6A030E01
:10010000DB6A020EDBCF10F0030EDBCF11F0D890CC
:10011000115004E6EE0E105C000E115806E2020EBD
:10012000DB2A030EEEE3DB2AECD7DF2A010ED0E355
:10013000DB2ACED7040EE15C02E2E16AE552E16E11
:10014000E552E7CFD9FF1200956A836A1200FCDFFF
:1001500005EC0BF07AEC1FF055EC11F053EC1DF0B0
:100160002EEC15F0AFEC0CF0A6EC0EF0F40EE66EF3
:10017000010EE66EA5DFE552E552570EE66E120E51
:10018000E66EEAEC17F0E552E552660EE66EB70E43
:10019000E66E4DEC19F0E552E552020EE66EE66AA7
:1001A00028EC1AF0E552E552320EE66EE66A59EC9A
:1001B0001AF0E552E5529296929C809C928292842B
:1001C00080949288928A809A2CEC06F06FEF06F069
:1001D000D9CFE6FFE1CFD9FFFE0EDBCF11F0800EC5
:1001E00011141AE1FD0EDBCF12F0FE0EDBCF13F07F
:1001F000133404E212500708000E13540DE3FD0EF1
:10020000DBCFE9FFFE0EDBCFEAFF800EE926000E12
:10021000EA22EF508310836EE552E7CFD9FF120038
:10022000D9CFE6FFE1CFD9FFFE0EDBCF11F0800E74
:1002300011141AE1FD0EDBCF12F0FE0EDBCF13F02E
:10024000133404E212500708000E13540DE3FD0EA0
:10025000DBCFE9FFFE0EDBCFEAFF800EE926000EC2
:10026000EA22EF1C8314836EE552E7CFD9FF120018
:10027000D9CFE6FFE1CFD9FFFD0EDBCFE9FFFE0EC0
:10028000DBCFEAFF880EE926000EEA22EF0415E133
:10029000FD0EDBCFE6FFFE0EDBCFE6FFC1DFE55252
:1002A000E552FD0EDBCFE9FFFE0EDBCFEAFF880E45
:1002B000E926000EEA22EF6A15D0FD0EDBCFE6FF3D
:1002C000FE0EDBCFE6FF84DFE552E552FD0EDBCF0D
:1002D000E9FFFE0EDBCFEAFF880EE926000EEA22D8
:1002E000010EEF6EE552E7CFD9FF1200D9CFE6FF3E
:1002F000E1CFD9FF020EE126DE6ADD6ADECF10F023
:10030000DDCF11F0D890115004E60E0E105C000EF7
:10031000115821E2DECFE6FFDDCFE6FF59DFE552DF
:10032000E552F40EE66E010EE66ECADEE552E552C7
:10033000DECFE6FFDDCFE6FF73DFE552E552F40ED8
:10034000E66E010EE66EBCDEE552E552DF2A010ED6
:10035000D5E3DB2AD3D7020EE15C02E2E16AE55283
:10036000E16EE552E7CFD9FF120093EC1EF04DECA1
:100370001EF00001ED510C0A73E00F0A4EE0010A75
:100380002AE0030A23E0010A01E094D07EEC06F0A3
:10039000B2EC05F0000903E00001010EED6F29EC5D
:1003A0000AF0010803E10001020EED6F2CEC0AF0E7
:1003B000010803E10001030EED6F32EC0AF00009C1
:1003C00001E179D000010C0EED6F120075D8CADB87
:1003D000000971E043D016EC06F060EC06F0800EE8
:1003E000E66E3A0EE66EE66AE66A2AEC11F0E5522F
:1003F000E552E552E5526F0EE66E3A0EE66EE66A9B
:10040000010EE66E2AEC11F0E552E552E552E55296
:1004100029EC0AF000094FE121D000EC06F051EC84
:1004200006F05E0EE66E3A0EE66EE66AE66A2AECC4
:1004300011F0E552E552E552E5524D0EE66E3A0EE8
:10044000E66EE66A010EE66E2AEC11F0E552E55220
:10045000E552E5522CEC0AF000092DE1000128D00C
:100460000DEC0AF0380EE66E3A0EE66EE66AE66AC3
:100470002AEC11F0E552E552E552E552230EE66E04
:100480003A0EE66EE66A010EE66E2AEC11F0E552CF
:10049000E552E552E5520001B72BB751106E116AD3
:1004A000D890115004E6FA0E105C000E115803E3C8
:1004B000ED6B1200ED6B12000001B4510B0A01E16B
:1004C00092D20F0A01E167D20E0A01E104D2030AB7
:1004D00001E1A1D1010A01E154D10F0A01E107D1E3
:1004E000010A01E1DED0030A01E19FD0060A65E0BE
:1004F000010A5BE0030A19E0FE0A01E01200120E95
:10050000E66E3A0EE66EE66AE66A2AEC11F0E5520D
:10051000E552E552E55256DB1DDB000901E188D2C8
:100520000001B56BB66B010E81D2010EE66E3A0E7C
:10053000E66EE66AE66A2AEC11F0E552E552E5520B
:10054000E5520001B62BD5DA000919E0FF0EE66E80
:10055000390EE66EB5C0E6FF010EE66E2AEC11F02C
:10056000E552E552E552E5520001B551EA6AEE0F57
:10057000E96E000EEA22F2C0EFFFB52BB66B040E57
:100580000001B55D02E3020EB46F640EB65D01E3D7
:10059000B469E0DA000902E00001B469D3DA0009C5
:1005A00001E146D200010B0E41D2B66B42DA0009DE
:1005B00001E03AD20001040E39D2B62BE80EE66E05
:1005C000390EE66EE66AE66A2AEC11F0E552E5526B
:1005D000E552E552D20EE66E390EE66EE66A010E7F
:1005E000E66E2AEC11F0E552E552E552E552C2DA28
:1005F000000903E00001050EB46FC4DA000903E04E
:100600000001060EB46F0001B651106E116AD89049
:10061000115004E6900E105C010E115801E3B4690C
:1006200091DA000901E104D239D1A00EE66E390E4B
:10063000E66EE66AE66A2AEC11F0E552E552E5520A
:10064000E5528F0EE66E390EE66EE66A010EE66E34
:100650002AEC11F0E552E552E552E5528BDA000939
:1006600003E00001070EB46F8DDA000903E000011A
:10067000090EB46F8FDA000903E00001080EB46FB1
:1006800091DA000903E000010A0EB46F63DA000991
:1006900003E00001030EB46F55DA000901E1C8D18F
:1006A000FDD07E0EE66E390EE66EE66AE66A2AEC4C
:1006B00011F0E552E552E552E5526A0EE66E390E4A
:1006C000E66EE66A010EE66E2AEC11F0E552E5529E
:1006D000E552E552F5DAAADA3DDA000903E0000155
:1006E000030EB46F2FDA000901E1A2D1D7D0590E61
:1006F000E66E390EE66EE66AE66A2AEC11F0E5521D
:10070000E552E552E552B9C010F0116A126A136A57
:10071000B9C0E6FF11C0E6FF12C0E6FF13C0E6FF56
:100720000E0EE66EE66A03EC10F0146E060EE15E45
:100730001450480EE66E390EE66EE66A010EE66E5D
:100740002AEC11F0E552E552E552E55213DA0009C0
:1007500002E00001B92B16DA000902E00001B90736
:10076000F9D9000903E00001050EB46FEBD90009C7
:1007700001E15ED100010B0EB46F340EE66E390E4E
:1007800093D0230EE66E390EE66EE66AE66A2AEC30
:1007900011F0E552E552E552E552BAC010F0116A87
:1007A000126A136ABAC0E6FF11C0E6FF12C0E6FF84
:1007B00013C0E6FF0E0EE66EE66A03EC10F0146E50
:1007C000060EE15E1450480EE66E390EE66EE66ADD
:1007D000010EE66E2AEC11F0E552E552E552E552C3
:1007E000C9D9000902E00001BA2BCCD9000902E006
:1007F0000001BA07AFD9000903E00001050EB46F8C
:10080000A1D9000901E114D100010B0EB46F0E0E45
:10081000E66E390E49D0FD0EE66E380EE66EE66ADB
:10082000E66A2AEC11F0E552E552E552E552BBC00A
:1008300010F0116A126A136ABBC0E6FF11C0E6FF2E
:1008400012C0E6FF13C0E6FF0E0EE66EE66A03EC8A
:1008500010F0146E060EE15E1450480EE66E390E6E
:10086000E66EE66A010EE66E2AEC11F0E552E552FC
:10087000E552E5527FD9000902E00001BB2B82D985
:10088000000902E00001BB0765D9000903E000018F
:10089000050EB46F57D9000901E1CAD000010B0E53
:1008A000B46FC10EE66E390EE66EE66AE66A2AECB1
:1008B00011F0E552E552E552E552B10EE66E390E01
:1008C000E66EE66A010EE66E2AEC11F0E552E5529C
:1008D000E552E5521200EC0EE66E380EE66EE66A60
:1008E000E66A2AEC11F0E552E552E552E552BCC049
:1008F00010F0116A126A136ABCC0E6FF11C0E6FF6D
:1009000012C0E6FF13C0E6FF0E0EE66EE66A03ECC9
:1009100010F0146E060EE15E1450480EE66E390EAD
:10092000E66EE66A010EE66E2AEC11F0E552E5523B
:10093000E552E5521FD9000902E00001BC2B22D983
:10094000000902E00001BC0705D9000903E000012D
:10095000050EB46FF7D800091CE000010B0EB46F50
:10096000C10EE66E390EE66EE66AE66A2AEC11F012
:10097000E552E552E552E552B10EE66E390EE66EED
:10098000E66A010EE66E2AEC11F0E552E552E552F8
:10099000E55280961200B62BDB0EE66E380EE66E40
:1009A000E66AE66A2AEC11F0E552E552E552E552B4
:1009B000C10EE66E390EE66EE66A010EE66E2AECB0
:1009C00011F0E552E552E552E5520001B651106EC4
:1009D000116AD890115004E6C80E105C000E115830
:1009E00027E3B4691200C70EE66E380EE66EE66ABB
:1009F000E66A2AEC11F0E552E552E552E552B80EEE
:100A0000E66E380EE66EE66A010EE66E2AEC11F02E
:100A1000E552E552E552E552ADD8000902E0000189
:100A2000B469B0D8000904E00001030EB46F1200ED
:100A30001200D9CFE6FFE1CFD9FF040EE126010E67
:100A4000F36E020EF3CFDBFF030EDB6ADF6A050EE7
:100A5000DF5C43E2010EF36E020EF3CFDBFF030E09
:100A6000DB6A010EDB6A040EF36E010EDBCFF4FFCE
:100A7000F350F45C24E2010EDB50EA6AEE0FE96EFB
:100A8000000EEA22EFCF10F0DF50040DF3CF11F08B
:100A9000F4CF12F0A00E1126000E1222010EDB5030
:100AA0001124E96E000E1220EA6EEF50105C04E093
:100AB000020EDB6A030EDB6A010EDB2AD4D7D950A3
:100AC000020FE96EDACFEAFF010EEE1804E1ED50F5
:100AD00002E1DF2802D0DF2ABAD7106E040EE15CF3
:100AE00002E2E16AE552E16E1050E552E7CFD9FF2C
:100AF0001200D9CFE6FFE1CFD9FFE652DF6ADF501F
:100B00000F081AE3EA6ADF34FE0BEA36E96E610E7B
:100B1000E926010EEA22010EEE180CE1ED500AE181
:100B2000DF50EA6A900FE96E000EEA22EFCFF2F092
:100B3000010E03D0DF2AE3D7000EE552E552E7CFDE
:100B4000D9FF12000101010E6D1903E16E5101E19F
:100B5000010C000C0101010E6F1903E1705101E15C
:100B6000010C000C0101010E671903E1685101E15C
:100B7000010C000C0101010E611903E1625101E158
:100B8000010C000C0101010E631903E1645101E144
:100B9000010C000C0101010E651903E1665101E130
:100BA000010C000C0101010E691903E16A5101E118
:100BB000010C000C000EE66EE66AE8EC00F0E5526F
:100BC000E5521200000EE66EE66A10EC01F0E55206
:100BD000E5521200030EE66EE66A10EC01F0E552F3
:100BE000E552040EE66EE66A10EC01F0E552E552BD
:100BF000050EE66EE66AE8EC00F0E552E5521200FA
:100C0000030EE66EE66A10EC01F0E552E552050EC1
:100C1000E66EE66A10EC01F0E552E552040EE66E6F
:100C2000E66AE8EC00F0E552E5521200040EE66ECA
:100C3000E66A10EC01F0E552E552050EE66EE66A52
:100C400010EC01F0E552E552030EE66EE66AE8ECC0
:100C500000F0E552E5521200030EE66EE66A10EC73
:100C600001F0E552E552050EE66EE66A10EC01F081
:100C7000E552E552040EE66EE66A10EC01F0E5522C
:100C8000E5521200060EE66EE66A10EC01F0E5523F
:100C9000E552070EE66EE66A10EC01F0E552E55209
:100CA0001200060EE66EE66A10EC01F0E552E5521F
:100CB000070EE66EE66AE8EC00F0E552E552120037
:100CC000070EE66EE66A10EC01F0E552E552060EFC
:100CD000E66EE66AE8EC00F0E552E5521200060E18
:100CE000E66EE66A10EC01F0E552E552070EE66E9C
:100CF000E66A10EC01F0E552E552120033DF00091C
:100D000003E00001010EED6F0001BF29106E140E0B
:100D1000116E0E6E10C009F0C8EC20F005C0BFF0D7
:100D20000001055002E1BD07BE07BE51E66EE66A4E
:100D3000BD51E66EE66AB8D9E552E552E552E55294
:100D40000001B851030A01E105D1010A01E1AED069
:100D5000030A57E0010A01E051D13CDFB1DFA70EE1
:100D6000E66E380EE66EE66AE66A2AEC11F0E552A7
:100D7000E552E552E552BDC010F0116A126A136ADD
:100D8000BDC0E6FF11C0E6FF12C0E6FF13C0E6FFDC
:100D90000E0EE66EE66A03EC10F0146E060EE15ECF
:100DA0001450960EE66E380EE66EE66A010EE66E9A
:100DB0002AEC11F0E552E552E552E552BEC010F0C2
:100DC000116A126A136ABEC0E6FF11C0E6FF12C0C4
:100DD000E6FF13C0E6FF0E0EE66E010EE66E03ECB4
:100DE00010F0146E060EE15E14500001BD5101E0DA
:100DF00003D1010EB86F808CBAC0BDF0BAC0BEF08E
:100E0000FBD0FEDE5DDF850EE66E380EE66EE66A2E
:100E1000E66A2AEC11F0E552E552E552E552BDC012
:100E200010F0116A126A136ABDC0E6FF11C0E6FF36
:100E300012C0E6FF13C0E6FF0E0EE66EE66A03EC94
:100E400010F0146E060EE15E1450740EE66E380E4D
:100E5000E66EE66A010EE66E2AEC11F0E552E55206
:100E6000E552E552BEC010F0116A126A136ABEC0A4
:100E7000E6FF11C0E6FF12C0E6FF13C0E6FF0E0E4C
:100E8000E66E010EE66E03EC10F0146E060EE15EE7
:100E900014500001BD5101E0AFD0020EB86F809C2C
:100EA000BB51BC25BD6FBBC0BEF0A6D0EBDEBEDE25
:100EB000630EE66E380EE66EE66AE66A2AEC11F01C
:100EC000E552E552E552E552BDC010F0116A126AD2
:100ED000136ABDC0E6FF11C0E6FF12C0E6FF13C0F3
:100EE000E6FF0E0EE66EE66A03EC10F0146E060ED8
:100EF000E15E1450520EE66E380EE66EE66A010EA2
:100F0000E66E2AEC11F0E552E552E552E552BEC01C
:100F100010F0116A126A136ABEC0E6FF11C0E6FF44
:100F200012C0E6FF13C0E6FF0E0EE66E010EE66E7F
:100F300003EC10F0146E060EE15E14500001BE5179
:100F400007E1030EB86F809CBCC0BEF0BCC0BDF012
:100F500080861200A6DE6ADE410EE66E380EE66E70
:100F6000E66AE66A2AEC11F0E552E552E552E552EE
:100F7000BDC010F0116A126A136ABDC0E6FF11C04D
:100F8000E6FF12C0E6FF13C0E6FF0E0EE66EE66A4D
:100F900003EC10F0146E060EE15E1450300EE66E97
:100FA000380EE66EE66A010EE66E2AEC11F0E552A6
:100FB000E552E552E552BEC010F0116A126A136A9A
:100FC000BEC0E6FF11C0E6FF12C0E6FF13C0E6FF99
:100FD0000E0EE66E010EE66E03EC10F0146E060EB9
:100FE000E15E14500001BE5107E1B86B808CB9C0BE
:100FF000BDF0B951BA25BE6F80961200B86B1200D1
:10100000D9CFE6FFE1CFD9FFFD0EDBCF08F0FE0E12
:10101000DBCF09F0090E081801E109503EE0080E87
:10102000081801E1095037E0070E081801E10950DE
:1010300030E0060E081801E1095029E0050E0818F5
:1010400001E1095022E0040E081801E109501BE0FB
:10105000030E081801E1095014E0020E081801E11E
:1010600009500DE0010E081801E1095006E0085092
:1010700017E1095015E1C00E11D0F90E0FD0A40EE2
:101080000DD0B00E0BD0990E09D0920E07D0820E63
:1010900005D0F80E03D0800E01D0900EF36EF46AE6
:1010A000E552E7CFD9FF1200D9CFE6FFE1CFD9FF54
:1010B0000F0EE126FD0EDBCF10F0FE0EDBCF11F0A0
:1010C0000A0E0D6E0E6A10C008F011C009F0D8ECBF
:1010D0001EF008C010F009C011F008C0E6FF09C0FA
:1010E000E6FF8EDFE552E552F3CFDEFFF4CFDDFF02
:1010F000FD0EDBCF10F0FE0EDBCF11F00A0E0D6EF1
:101100000E6A10C008F011C009F0D8EC1EF004C03F
:1011100010F005C011F004C0E6FF05C0E6FF70DF67
:10112000E552E552020EF3CFDBFF030EF4CFDBFFF7
:10113000FB0EDBCF10F0FC0EDBCF11F00A0E0D6EB4
:101140000E6A10C008F011C009F0D8EC1EF008C0FB
:1011500010F009C011F008C0E6FF09C0E6FF50DF3B
:10116000E552E552040EF3CFDBFF050EF4CFDBFFB3
:10117000FB0EDBCF10F0FC0EDBCF11F00A0E0D6E74
:101180000E6A10C008F011C009F0D8EC1EF004C0BF
:1011900010F005C011F004C0E6FF05C0E6FF30DF27
:1011A000E552E552060EF3CFDBFF070EF4CFDBFF6F
:1011B000010EF36E080EF3CFDBFF090EDB6A0E0E95
:1011C000DB6A040EF36E0E0EDBCFF4FFF350F45C1B
:1011D00001E319D1080EDBCF08F0090EDBCF09F0CF
:1011E0000C0E08C0DBFF0D0E09C0DBFF800EF36E96
:1011F0000A0EF3CFDBFF0B0EDB6AD9500A0FE96E44
:10120000DACFEAFF000ED880EE54000EED543CE237
:101210000A0EDBCF12F00B0EDBCF13F00C0EDB50FF
:101220001214106E0D0EDB501314116E10501110AD
:1012300006E0010EE66EE66AE8EC00F005D0010E6D
:10124000E66EE66A10EC01F0E552E552000EE66E3D
:10125000E66AE8EC00F0E552E552000EE66EE66A5A
:1012600010EC01F0E552E5520A0EDBCF10F00B0E48
:10127000DBCF11F0D890113210320A0E10C0DBFF14
:101280000B0E11C0DBFFB9D7020EE66EE66AE8EC82
:1012900000F0E552E552020EE66EE66A10EC01F04F
:1012A000E552E5520E0EDB500AE1D9CFE9FFDACF65
:1012B000EAFF0C0EEECFDBFF0D0EEDCFDBFF0E0EC7
:1012C000DB040CE1020EDBCF08F0030EDBCF09F0EC
:1012D0000C0E08C0DBFF0D0E09C0DBFF0E0EDB504D
:1012E00002080CE1040EDBCF08F0050EDBCF09F09D
:1012F0000C0E08C0DBFF0D0E09C0DBFF0E0EDB502D
:1013000003080CE1060EDBCF08F0070EDBCF09F077
:101310000C0E08C0DBFF0D0E09C0DBFF800EF36E64
:101320000A0EF3CFDBFF0B0EDB6AD9500A0FE96E12
:10133000DACFEAFF000ED880EE54000EED543CE206
:101340000A0EDBCF12F00B0EDBCF13F00C0EDB50CE
:101350001214106E0D0EDB501314116E105011107C
:1013600006E0010EE66EE66AE8EC00F005D0010E3C
:10137000E66EE66A10EC01F0E552E552000EE66E0C
:10138000E66AE8EC00F0E552E552000EE66EE66A29
:1013900010EC01F0E552E5520A0EDBCF10F00B0E17
:1013A000DBCF11F0D890113210320A0E10C0DBFFE3
:1013B0000B0E11C0DBFFB9D7020EE66EE66AE8EC51
:1013C00000F0E552E552020EE66EE66A10EC01F01E
:1013D000E552E552080EDBCF10F0090EDBCF11F01D
:1013E000D89010361136080E10C0DBFF090E11C060
:1013F000DBFF0A0EE66EE66A60EC00F0E552E552AD
:101400000E0EDB2ADED60F0EE15C02E2E16AE55247
:10141000E16EE552E7CFD9FF1200DE0EE66E000E58
:10142000E66EC00EE66E000EE66E7AEC16F0E55241
:10143000E552E552E5520001DF6FE80409E1DF6B98
:10144000190EB96F020EBA6F180EBB6F030EBC6F88
:10145000120080B2010C000C80B8010C000C80BAA4
:0A146000010C000C80B4010C000C1C
:06146A00D9CFE6FFE1CF3F
:10147000D9FF040EE126DE6ADD6ADECF10F0DDCF93
:1014800011F0126A136A11AE02D012681368D950B3
:10149000FB0FE96EFF0EDA20EA6EEE50105CEE50A4
:1014A0001158EE501258EE5013581DE2020EDB6A2E
:1014B000030EDB6A020EDBCF10F0030EDBCF11F060
:1014C000D890115004E6050E105C000E115806E28B
:1014D000020EDB2A030EEEE3DB2AECD7DF2A010E35
:1014E000CCE3DB2ACAD7040EE15C02E2E16AE552F2
:1014F000E16EE552E7CFD9FF1200D9CFE6FFE1CF89
:10150000D9FF040EE126DE6ADD6ADECF10F0DDCF02
:1015100011F0126A136A11AE02D012681368D95022
:10152000FB0FE96EFF0EDA20EA6EEE50105CEE5013
:101530001158EE501258EE5013581DE2020EDB6A9D
:10154000030EDB6A020EDBCF10F0030EDBCF11F0CF
:10155000D890115004E6EE0E105C000E115806E211
:10156000020EDB2A030EEEE3DB2AECD7DF2A010EA4
:10157000CCE3DB2ACAD7040EE15C02E2E16AE55261
:10158000E16EE552E7CFD9FF1200D9CFE6FFE1CFF8
:10159000D9FF0F0E8116FE0EDB50F00B81128186F3
:1015A000010EE66EE66AE66AE66AA7DFE552E552F4
:1015B000E552E5528196010EE66EE66AE66AE66A53
:1015C0009CDFE552E552E552E5520F0E8116FE0E04
:1015D000DB38F00B81128186010EE66EE66AE66A60
:1015E000E66A8BDFE552E552E552E5528196010E3F
:1015F000E66EE66AE66AE66A80DFE552E552E552A3
:10160000E552E552E7CFD9FF1200D9CFE6FFE1CF8F
:10161000D9FFE652936A190EE66EE66AE66AE66A52
:101620006CDFE552E552E552E5520F0E8116F80ED9
:1016300081160F0E8116300E81128186010EE66E24
:10164000E66AE66AE66A59DFE552E552E552E55296
:101650008196010EE66EE66AE66AE66A4EDFE552BC
:10166000E552E552E5520F0E8116300E8112818649
:10167000010EE66EE66AE66AE66A3FDFE552E5528B
:10168000E552E5528196010EE66EE66AE66AE66A82
:1016900034DFE552E552E552E5520F0E8116300E69
:1016A00081128186010EE66EE66AE66AE66A25DF49
:1016B000E552E552E552E5528196010EE66EE66A84
:1016C000E66AE66A1ADFE552E552E552E5520F0E88
:1016D0008116818A8186010EE66EE66AE66AE66A0E
:1016E0000CDFE552E552E552E5528196010EE66EB9
:1016F000E66AE66AE66A01DFE552E552E552E5523E
:10170000280EE66E42DFE5520C0EE66E3EDFE55235
:10171000E552E552E7CFD9FF1200D9CFE6FFE1CF7E
:10172000D9FF020EE126DF6A010EDB6A81940F0EFB
:10173000E66EE66AE66AE66A98DEE552E552E5524A
:10174000E5520F0E81128186E66EE66AE66AE66A67
:101750008CDEE552E552E552E5520F0E8114E76E3C
:10176000010EE7CFDBFF81960F0EE66EE66AE66AB2
:10177000E66A7BDEE552E552E552E5520F0E811234
:101780008186E66EE66AE66AE66A6FDEE552E55253
:10179000E552E5520F0E8114DF6E010EDB50DF12B1
:1017A0008196010EE66EE66AE66AE66A5EDEE5525C
:1017B000E552E552E552DF50106E020EE15C02E2A6
:1017C000E16AE552E16E1050E552E7CFD9FF120011
:1017D000D9CFE6FFE1CFD9FFE652DF6A9EDFDF6EA9
:1017E000DFBEFCD7DF50E552E552E7CFD9FF12004C
:1017F000D9CFE6FFE1CFD9FF0F0E8116FE0EDB50E9
:1018000081128186050EE66EE66AE66AE66A2DDEDC
:10181000E552E552E552E5528196050EE66EE66A1E
:10182000E66AE66A22DEE552E552E552E552E55205
:10183000E7CFD9FF1200D9CFE6FFE1CFD9FF8194DE
:10184000050EE66EE66AE66AE66A0FDEE552E552E6
:10185000E552E552FE0EDBCFE6FFCADFE552FE0E93
:10186000DB38F00BE66EC4DFE552E552E7CFD9FF77
:101870001200D9CFE6FFE1CFD9FF8184050EE66ED5
:10188000E66AE66AE66AF1DDE552E552E552E552BE
:10189000FE0EDBCFE6FFACDFE552FE0EDB38F00BD1
:1018A000E66EA6DFE5528194E552E7CFD9FF12003C
:1018B000D9CFE6FFE1CFD9FFFE0EDBCFE6FFD9DFC0
:1018C000E552E552E7CFD9FF1200D9CFE6FFE1CFCD
:1018D000D9FFFE0EDBCFE6FFCCDFE552E552E7CFC6
:1018E000D9FF1200D9CFE6FFE1CFD9FFFD0EDBCF44
:1018F000F6FFFE0EDBCFF7FF0800F5500FE0FD0E00
:10190000DBCFF6FFDB2AFE0EDBCFF7FF01E3DB2A9E
:101910000800F550E66ED9DFE552E8D7E552E7CF8B
:10192000D9FF1200D9CFE6FFE1CFD9FFE652FD0E75
:10193000DB500F0B106EFE0EDB50010B400DF35011
:101940001024DF6E7F0EDF14800FDF6EDFCFE6FF27
:1019500072DFE552E552E552E7CFD9FF1200010EE2
:10196000E66E69DFE552E66AE66ADCDFE552E552DB
:101970001200D9CFE6FFE1CFD9FF050EE126010E17
:10198000F36EDB6E020EDB6A030EDB6A040EDB6AAB
:10199000DF6ADFCF10F0116A10BE1168FB0EDBCFDB
:1019A00012F0FC0EDBCF13F011501318E8AE02D08A
:1019B000133404D01250105C135011582DE2FD0E58
:1019C000DBCF10F0FE0EDBCF11F0126A136A11AEFE
:1019D00002D012681368D950010FE96EDACFEAFF1E
:1019E00010C00BF011C00CF012C00DF013C00EF0BF
:1019F000EECF06F0EECF07F0EECF08F0EFCF09F014
:101A0000FFEC1FF005C0EDFF04C0EDFF03C0EDFFCC
:101A100002C0EFFFDF2ABDD7010EDBCF10F0020EB0
:101A2000DBCF11F0030EDBCF12F0040EDBCF13F08F
:101A300010C006F011C007F012C008F013C009F082
:101A4000050EE15C02E2E16AE552E16EE552E7CFA4
:101A5000D9FF1200D9CFE6FFE1CFD9FF020EE12670
:101A6000DF6AFB0EDBCF10F0FC0EDBCF11F0FD0EBA
:101A7000DBCF12F0FE0EDBCF13F01050111012105E
:101A8000131005E1300EE66E20DFE552F4D0D95098
:101A9000FB0FE96EFF0EDA20EA6ED890030EEB50D2
:101AA000000A08E6000EEE5C000EEE58000EEE583E
:101AB000000EEE5815E22D0EE66E07DFE552D95006
:101AC000FB0FE96EFF0EDA20EA6E000EEE6CEF1EE1
:101AD000EE22EF1EEE22EF1EEF22ED52ED52ED52FE
:101AE000DE52070EDD6E010EDBCF10F0000EE76E4A
:101AF0001018E8AE02D0103403D0E750D88010544C
:101B000001E3B9D0010EDB04146E156A14BE15682A
:101B100014C0E6FF15C0E6FF0A0EE66EE66A29DF8E
:101B2000E552E552E552E55206C010F007C011F04B
:101B300008C012F009C013F006C00BF007C00CF08B
:101B400008C00DF009C00EF0FB0EDBCF06F0FC0E56
:101B5000DBCF07F0FD0EDBCF08F0FE0EDBCF09F088
:101B600037EC20F0065007100810091041E0010E74
:101B7000DF6EDB04186E196A18BE196818C0E6FF1C
:101B800019C0E6FF0A0EE66EE66AF3DEE552E5529C
:101B9000E552E55206C014F007C015F008C016F073
:101BA00009C017F006C00BF007C00CF008C00DF01C
:101BB00009C00EF0FB0EDBCF06F0FC0EDBCF07F00A
:101BC000FD0EDBCF08F0FE0EDBCF09F037EC20F086
:101BD00006C010F007C011F008C012F009C013F0E1
:101BE000300E1026000E112212221322105003D0A4
:101BF000DF5004E0300EE66E68DEE552010EDB04D5
:101C0000146E156A14BE156814C0E6FF15C0E6FF11
:101C10000A0EE66EE66AADDEE552E552E552E552A1
:101C200006C010F007C011F008C012F009C013F090
:101C3000D950FB0FE96EFF0EDA20EA6E06C00BF0FA
:101C400007C00CF008C00DF009C00EF0EECF06F092
:101C5000EECF07F0EECF08F0EFCF09F037EC20F031
:101C600005C0EDFF04C0EDFF03C0EDFF02C0EFFFB4
:101C7000010EDB0638D7020EE15C02E2E16AE552B2
:101C8000E16EE552E7CFD9FF1200D9CFE6FFE1CFF1
:101C9000D9FFFD0EDBCFE6FFFE0EDBCFE6FF42DE17
:101CA000E552E552D950F90FE96EFF0EDA20EA6EDF
:101CB000EECFE6FFEECFE6FFEECFE6FFEFCFE6FF9B
:101CC000C9DEE552E552E552E552E552E7CFD9FFCC
:101CD0001200D9CFE6FFE1CFD9FFFD0EDBCFE6FF43
:101CE000FE0EDBCFE6FF1EDEE552E552FB0EDBCF3C
:101CF000E6FFFC0EDBCFE6FFF5DDE552E552E552EF
:101D0000E7CFD9FF1200D9CFE6FFE1CFD9FFF3C06B
:101D100010F0F4C011F0040ED89010361136E80619
:101D2000FBE1410E1026010E112210500001F52595
:101D3000E96E1150F621EA6EFE0EDBCFEFFFF52BB8
:101D4000000EF623E552E7CFD9FF1200D9CFE6FF08
:101D5000E1CFD9FFE652DF6ADFCF10F0100EE76E59
:101D60001018E8AE02D0E73402D0E750105C18E259
:101D7000DFCFE9FFEA6AE9BEEA68410EE926010E13
:101D8000EA22200EEF6EDFCFE9FFEA6AE9BEEA68D9
:101D9000510EE926010EEA22200EEF6EDF2ADCD773
:101DA000E552E552E7CFD9FF1200D9CFE6FFE1CFE8
:101DB000D9FFE65201014051030A52E0010A36E020
:101DC000030A1AE0010A67E1E66AE66AABDDE5525A
:101DD000E552DF6A080EDF5C0CE2DF50EA6A410F71
:101DE000E96E010EEA22EF50E66E6FDDE552DF2A62
:101DF000F1D70101010E32D0080EE66EE66A92DDDF
:101E0000E552E552DF6A080EDF5C0DE2080EDF24C2
:101E1000EA6A410FE96E010EEA22EF50E66E55DDE7
:101E2000E552DF2AF0D70101020E18D0E66A010E52
:101E3000E66E78DDE552E552DF6A080EDF5C0CE203
:101E4000DF50EA6A510FE96E010EEA22EF50E66EAA
:101E50003CDDE552DF2AF1D70101030E406F1CD0B3
:101E6000080EE66E010EE66E5DDDE552E552DF6AB4
:101E7000080EDF5C0DE2080EDF24EA6A510FE96EFE
:101E8000010EEA22EF50E66E20DDE552DF2AF0D7A0
:101E90000101406B01D0406BE552E552E7CFD9FF1D
:101EA0001200D9CFE6FFE1CFD9FFE6520101405140
:101EB000010A1BE0010A32E1E66AE66A33DDE55217
:101EC000E552DF6A100EDF5C0CE2DF50EA6A410F78
:101ED000E96E010EEA22EF50E66EF7DCE552DF2AEA
:101EE000F1D70101010E406F1AD0E66A010EE66ECD
:101EF00019DDE552E552DF6A100EDF5C0CE2DF50BF
:101F0000EA6A510FE96E010EEA22EF50E66EDDDC5F
:101F1000E552DF2AF1D70101406B01D0406BE55259
:101F2000E552E7CFD9FF1200D9CFE6FFE1CFD9FFC5
:101F3000E652E66AE66AF6DCE552E552DF6A100E22
:101F4000DF5C0CE2DF50EA6A410FE96E010EEA2223
:101F5000EF50E66EBADCE552DF2AF1D7E66A010EF1
:101F6000E66EE0DCE552E552DF6A100EDF5C0CE263
:101F7000DF50EA6A510FE96E010EEA22EF50E66E79
:101F8000A4DCE552DF2AF1D7E552E552E7CFD9FFCD
:101F90001200D9CFE6FFE1CFD9FFFE0EDB50010BD7
:101FA0000001F36FF46BFD0EDB500F0BF56FF66B5A
:101FB000FC0EDB500A0802E1610E05D0FC0EDB507E
:101FC0000D0805E1640EF36EFC0EF3CFDBFFF3C0EA
:101FD00010F0F4C011F0040ED89010361136E80657
:101FE000FBE1410E1026010E112210500001F525D3
:101FF000E96E1150F621EA6EFC0EDBCFEFFFE552E1
:10200000E7CFD9FF1200D9CFE6FFE1CFD9FF020E0B
:10201000E126DF6AFE0EDB50010B0001F36FF46B6B
:10202000FD0EDB500F0BF56FF66BF90EDBCF10F0EA
:10203000FA0EDBCF11F0FB0EDBCF12F0FC0EDBCF84
:1020400013F0105011101210131005E1300EE66E4F
:102050005ADEE552F5D0D950F90FE96EFF0EDA20BD
:10206000EA6ED890030EEB50000A08E6000EEE5C14
:10207000000EEE58000EEE58000EEE5815E22D0E32
:10208000E66E41DEE552D950F90FE96EFF0EDA2017
:10209000EA6E000EEE6CEF1EEE22EF1EEE22EF1E39
:1020A000EF22ED52ED52ED52DE52070EDD6E010EC3
:1020B000DBCF10F0000EE76E1018E8AE02D010343F
:1020C00003D0E750D880105401E3BAD0010EDB04EE
:1020D000146E156A14BE156814C0E6FF15C0E6FF3D
:1020E0000A0EE66EE66A45DCE552E552E552E55237
:1020F00006C010F007C011F008C012F009C013F0BC
:1021000006C00BF007C00CF008C00DF009C00EF0BF
:10211000F90EDBCF06F0FA0EDBCF07F0FB0EDBCFBC
:1021200008F0FC0EDBCF09F037EC20F0065007106A
:102130000810091041E0010EDF6EDB04186E196A09
:1021400018BE196818C0E6FF19C0E6FF0A0EE66E51
:10215000E66A0FDCE552E552E552E55206C014F09E
:1021600007C015F008C016F009C017F006C00BF044
:1021700007C00CF008C00DF009C00EF0F90EDBCF5F
:1021800006F0FA0EDBCF07F0FB0EDBCF08F0FC0EFB
:10219000DBCF09F037EC20F006C010F007C011F0DB
:1021A00008C012F009C013F0300E1026000E1122E4
:1021B00012221322105003D0DF5004E0300EE66EDE
:1021C000A2DDE552010EDB04146E156A14BE15681B
:1021D00014C0E6FF15C0E6FF0A0EE66EE66AB9EC2B
:1021E0000CF0E552E552E552E55206C010F007C08A
:1021F00011F008C012F009C013F0D950F90FE96EC0
:10220000FF0EDA20EA6E06C00BF007C00CF008C023
:102210000DF009C00EF0EECF06F0EECF07F0EECFD6
:1022200008F0EFCF09F037EC20F005C0EDFF04C057
:10223000EDFF03C0EDFF02C0EFFF010EDB0637D755
:10224000020EE15C02E2E16AE552E16EE552E7CF9F
:10225000D9FF1200D9CFE6FFE1CFD9FFFE0EDB5048
:10226000010B0001F36FF46BFD0EDB500F0BF56FEC
:10227000F66BFB0EDBCFF6FFFC0EDBCFF7FF0800A3
:10228000F5500FE0FB0EDBCFF6FFDB2AFC0EDBCFB9
:10229000F7FF01E3DB2A0800F550E66E34DDE55276
:0A22A000E8D7E552E7CFD9FF12009E
:0622AA000F0E946E826A23
:1022B0001200070E9410946EDF0E9414946E8268D0
:1022C0001200D9CFE6FFE1CFD9FF040EE126DE6A86
:1022D000DD6ADECF10F0DDCF11F0D890115004E6AA
:1022E000040E105C000E115801E390D0DECFE9FF20
:1022F000DDCFEAFF810EE926010EEA22EF1C826E95
:10230000020EDB6A030EDB6A020EDBCF10F0030E57
:10231000DBCF11F0D890115004E6040E105C000ED3
:1023200011586EE2020EDBCFE9FF030EDBCFEAFFAE
:10233000850EE926010EEA22EF5082143FE1DECF3E
:1023400014F0DDCF15F0D89014361536D890143629
:102350001536020EDB501424E96E030EDB501520F7
:10236000EA6ED890E936EA36610EE926010EEA22D5
:10237000EECF12F0EFCF13F0010E1226000E132253
:10238000DECF10F0DDCF11F0D89010361136D89096
:1023900010361136020EDB501024E96E030EDB50AE
:1023A0001120EA6ED890E936EA36610EE926010E70
:1023B000EA2212C0EEFF13C0EDFF1BD0DECF10F0FB
:1023C000DDCF11F0D89010361136D8901036113676
:1023D000020EDB501024E96E030EDB501120EA6E72
:1023E000D890E936EA36610EE926010EEA22EE6A55
:1023F000ED6A020EDB2A030E01E286D7DB2A84D7C0
:10240000DF2A010E01E265D7DB2A63D7040EE15C07
:1024100002E2E16AE552E16EE552E7CFD9FF120030
:10242000D9CFE6FFE1CFD9FF040EE126DE6ADD6AEF
:10243000DECF10F0DDCF11F0D890115004E6020E7F
:10244000105C000E115801E390D0DECFE9FFDDCF24
:10245000EAFF810EE926010EEA22EF1C826E020ECF
:10246000DB6A030EDB6A020EDBCF10F0030EDBCF5C
:1024700011F0D890115004E6040E105C000E1158B3
:102480006EE2020EDBCFE9FF030EDBCFEAFF850E23
:10249000E926010EEA22EF5082143FE1DECF14F06C
:1024A000DDCF15F0D89014361536D8901436153681
:1024B000020EDB501424E96E030EDB501520EA6E89
:1024C000D890E936EA36610EE926010EEA22EECF0F
:1024D00012F0EFCF13F0010E1226000E1322DECF02
:1024E00010F0DDCF11F0D89010361136D89010369C
:1024F0001136020EDB501024E96E030EDB50112062
:10250000EA6ED890E936EA36610EE926010EEA2233
:1025100012C0EEFF13C0EDFF1BD0DECF10F0DDCFF9
:1025200011F0D89010361136D89010361136020EB0
:10253000DB501024E96E030EDB501120EA6ED890B8
:10254000E936EA36610EE926010EEA22EE6AED6A04
:10255000020EDB2A030E01E286D7DB2A84D7DF2AAC
:10256000010E01E265D7DB2A63D7040EE15C02E2CB
:10257000E16AE552E16EE552E7CFD9FF1200D9CF0B
:10258000E6FFE1CFD9FF040EE126DE6ADD6A020E26
:10259000DB6A030EDB6A0101811D8214826E020E6A
:1025A000DB6A030EDB6A020EDBCF10F0030EDBCF1B
:1025B00011F0D890115004E6040E105C000E115872
:1025C0006EE2020EDBCFE9FF030EDBCFEAFF850EE2
:1025D000E926010EEA22EF5082143FE1DECF14F02B
:1025E000DDCF15F0D89014361536D8901436153640
:1025F000020EDB501424E96E030EDB501520EA6E48
:10260000D890E936EA36610EE926010EEA22EECFCD
:1026100012F0EFCF13F0010E1226000E1322DECFC0
:1026200010F0DDCF11F0D89010361136D89010365A
:102630001136020EDB501024E96E030EDB50112020
:10264000EA6ED890E936EA36610EE926010EEA22F2
:1026500012C0EEFF13C0EDFF1BD0DECF10F0DDCFB8
:1026600011F0D89010361136D89010361136020E6F
:10267000DB501024E96E030EDB501120EA6ED89077
:10268000E936EA36610EE926010EEA22EE6AED6AC3
:10269000020EDB2A030E01E286D7DB2A84D7040E62
:1026A000E15C02E2E16AE552E16EE552E7CFD9FF73
:1026B0001200D9CFE6FFE1CFD9FF040EE126DE6A92
:1026C000DD6A020EDB6A030EDB6A010EDE6EDD6A76
:1026D000DECFE9FFDDCFEAFF810EE926010EEA2217
:1026E000EF1C8214826E020EDB6A030EDB6A020E9E
:1026F000DBCF10F0030EDBCF11F0D890115004E6C1
:10270000030E105C000E11586EE2020EDBCFE9FFE3
:10271000030EDBCFEAFF850EE926010EEA22EF5019
:1027200082143FE1DECF14F0DDCF15F0D8901436DF
:102730001536D89014361536020EDB501424E96E87
:10274000030EDB501520EA6ED890E936EA36610EAA
:10275000E926010EEA22EECF12F0EFCF13F0010EC0
:102760001226000E1322DECF10F0DDCF11F0D8902C
:1027700010361136D89010361136020EDB50102468
:10278000E96E030EDB501120EA6ED890E936EA3686
:10279000610EE926010EEA2212C0EEFF13C0EDFF22
:1027A0001BD0DECF10F0DDCF11F0D89010361136EF
:1027B000D89010361136020EDB501024E96E030E4D
:1027C000DB501120EA6ED890E936EA36610EE92630
:1027D000010EEA22EE6AED6A020EDB2A030E01E226
:1027E00086D7DB2A84D7040EE15C02E2E16AE55277
:1027F000E16EE552E7CFD9FF1200D9CFE6FFE1CF76
:10280000D9FF040EE126DE6ADD6ADECF10F0DDCFEF
:1028100011F0FD0EDBCF12F0FE0EDBCF13F01150E6
:102820001318E8AE02D0133404D01250105C1350C9
:1028300011581DE2020EDB6A030EDB6A020EDBCFCB
:1028400010F0030EDBCF11F0D890115004E6EE0E1D
:10285000105C000E115806E2020EDB2A030EEEE3B6
:10286000DB2AECD7DF2A010ED0E3DB2ACED7040E19
:10287000E15C02E2E16AE552E16EE552E7CFD9FFA1
:102880001200D9CFE6FFE1CFD9FF040EE126DE6AC0
:10289000DD6ADECF10F0DDCF11F0D890115004E6E4
:1028A000040E105C000E115875E2DECFE9FFDDCF9B
:1028B000EAFF810EE926010EEA22EF1C826E020E6B
:1028C000DB6A030EDB6A020EDBCF10F0030EDBCFF8
:1028D00011F0D890115004E6040E105C000E11584F
:1028E0004AE2DECF10F0DDCF11F0D890103611366D
:1028F000D89010361136020EDB501024E96E030E0C
:10290000DB501120EA6ED890E936EA36610EE926EE
:10291000010EEA22EE6AED6A020EDBCFE9FF030E3A
:10292000DBCFEAFF850EE926010EEA22EF50821482
:102930001CE1DECF10F0DDCF11F0D890103611364B
:10294000D89010361136020EDB501024E96E030EBB
:10295000DB501120EA6ED890E936EA36610EE9269E
:10296000010EEA22010EEE6EED6A020EDB2A030E64
:10297000AAE3DB2AA8D78250816EE80EE66E030E2A
:10298000E66E3BDFE552E552DF2A010E01E281D718
:10299000DB2A7FD7040EE15C02E2E16AE552E16ED8
:1029A000E552E7CFD9FF1200D9CFE6FF040EE126AA
:1029B00084B005D00101612B000E622303D0010118
:1029C000616B626B84B204D0632B000E642302D06F
:1029D000636B646B84B404D0652B000E662302D055
:1029E000656B666B82B004D0672B000E682302D043
:1029F000676B686B82B204D0692B000E6A2302D029
:102A0000696B6A6B82B404D06B2B000E6C2302D00E
:102A10006B6B6C6B82BA04D06D2B000E6E2302D0F0
:102A20006D6B6E6B81B004D06F2B000E702302D0E3
:102A30006F6B706B040EE15C02E2E16AE552E16EDD
:102A4000E552E7CFD9FF1200070E9610966E270EBB
:0C2A50009410946E010E9310936E12000F
:042A5C00B06A810ECD
:102A6000AF6EAC8AAC94B886AC98AB8EAB889E9AAD
:102A70009D8A9F9A949C948E1200D9CFE6FFE1CF55
:102A8000D9FF040EE126DE6ADD6ADECF10F0DDCF6D
:102A900011F0FD0EDBCF12F0FE0EDBCF13F0115064
:102AA0001318E8AE02D0133404D01250105C135047
:102AB00011581DE2020EDB6A030EDB6A020EDBCF49
:102AC00010F0030EDBCF11F0D890115004E6EE0E9B
:102AD000105C000E115806E2020EDB2A030EEEE334
:102AE000DB2AECD7DF2A010ED0E3DB2ACED7040E97
:102AF000E15C02E2E16AE552E16EE552E7CFD9FF1F
:102B00001200D9CFE6FFE1CFD9FF9EA8FED7FE0E77
:102B1000DB50AD6E9E98E552E7CFD9FF1200D9CFBA
:102B2000E6FFE1CFD9FFFD0EDBCFE9FFFE0EDBCFE5
:102B3000EAFFEF5010E0FD0EDBCFE9FFFE0EDBCF2A
:102B4000EAFFEF50E66EDDDFE552FD0EDB2AFE0EFA
:102B5000EAE3DB2AE8D7E552E7CFD9FF1200D9CF65
:102B6000E6FFE1CFD9FFFD0EDBCFF6FFFE0EDBCF98
:102B7000F7FF0800F55015E0FD0EDBCFF6FFFE0E67
:102B8000DBCFF7FF0800F550E66EBBDFE552FD0E28
:102B9000DBCFF6FFDB2AFE0EDBCFF7FFE4E3DB2A19
:102BA000E2D7E552E7CFD9FF1200D9CFE6FFE1CF58
:102BB000D9FF050EE126010EF36EDB6E020EDB6A15
:102BC000030EDB6A040EDB6ADF6ADFCF10F0116AE6
:102BD00010BE1168FB0EDBCF12F0FC0EDBCF13F042
:102BE00011501318E8AE02D0133404D01250105C08
:102BF000135011582DE2FD0EDBCF10F0FE0EDBCF8F
:102C000011F0126A136A11AE02D012681368D9501B
:102C1000010FE96EDACFEAFF10C00BF011C00CF023
:102C200012C00DF013C00EF0EECF06F0EECF07F09D
:102C3000EECF08F0EFCF09F0FFEC1FF005C0EDFF7D
:102C400004C0EDFF03C0EDFF02C0EFFFDF2ABDD7D8
:102C5000010EDBCF10F0020EDBCF11F0030EDBCF45
:102C600012F0040EDBCF13F010C006F011C007F015
:102C700012C008F013C009F0050EE15C02E2E16A3F
:102C8000E552E16EE552E7CFD9FF1200D9CFE6FF5A
:102C9000E1CFD9FFE652DF6AAE50DF6EDFCFE6FF4D
:102CA00030DFE5520A0EDF5C17E00D0EDF5C14E04A
:102CB0000101A851EA6A8A0FE96E010EEA22DFCF0C
:102CC000EFFFA829106E1E0E116E0E6E10C009F0D7
:102CD000C8EC20F005C0A8F10A0EDF5C03E00D0E81
:102CE000DF5C03E10101010E896FE552E552E7CF98
:102CF000D9FF1200D9CFE6FFE1CFD9FFE652DF6A54
:102D00000101890545E1896BFB0EDBCFE9FFFC0E74
:102D1000DBCFEAFFA8C1EFFFDF6AA851DF5C27E243
:102D2000DFCFE9FFEA6AE9BEEA688A0EE926010E0A
:102D3000EA22EF50E66EDFCF10F0116A10BE116884
:102D4000FD0EDB501024E96EFE0EDB501120EA6E02
:102D5000E552E750EF6EDFCFE9FFEA6AE9BEEA68C5
:102D60008A0EE926010EEA22EF6ADF2AD6D7DFCFE4
:102D700010F0116A10BE1168FD0EDB501024E96ED0
:102D8000FE0EDB501120EA6EEF6AA86B010E01D037
:102D9000000EE552E552E7CFD9FF1200D9CFE6FF8A
:102DA000E1CFD9FF020EE126DF6AFB0EDBCF10F088
:102DB000FC0EDBCF11F0FD0EDBCF12F0FE0EDBCFF1
:102DC00013F0105011101210131002E1300EF5D054
:102DD000D950FB0FE96EFF0EDA20EA6ED890030E91
:102DE000EB50000A08E6000EEE5C000EEE58000EF6
:102DF000EE58000EEE5815E22D0EE66E82DEE5521C
:102E0000D950FB0FE96EFF0EDA20EA6E000EEE6C71
:102E1000EF1EEE22EF1EEE22EF1EEF22ED52ED52DC
:102E2000ED52DE520A0EDD6E010EDBCF10F0000E09
:102E3000E76E1018E8AE02D0103403D0E750D88007
:102E4000105401E3B9D0010EDB04146E156A14BEF0
:102E5000156814C0E6FF15C0E6FF0A0EE66EE66AC6
:102E6000A4DEE552E552E552E55206C010F007C077
:102E700011F008C012F009C013F006C00BF007C033
:102E80000CF008C00DF009C00EF0FB0EDBCF06F011
:102E9000FC0EDBCF07F0FD0EDBCF08F0FE0EDBCF24
:102EA00009F037EC20F0065007100810091041E037
:102EB000010EDF6EDB04186E196A18BE196818C09F
:102EC000E6FF19C0E6FF0A0EE66EE66A6EDEE55220
:102ED000E552E552E55206C014F007C015F008C0EF
:102EE00016F009C017F006C00BF007C00CF008C0C0
:102EF0000DF009C00EF0FB0EDBCF06F0FC0EDBCFB1
:102F000007F0FD0EDBCF08F0FE0EDBCF09F037EC4B
:102F100020F006C010F007C011F008C012F009C080
:102F200013F0300E1026000E112212221322105020
:102F300003D0DF5004E0300EE66EE3DDE552010E13
:102F4000DB04146E156A14BE156814C0E6FF15C0C4
:102F5000E6FF0A0EE66EE66A28DEE552E552E55225
:102F6000E55206C010F007C011F008C012F009C009
:102F700013F0D950FB0FE96EFF0EDA20EA6E06C09F
:102F80000BF007C00CF008C00DF009C00EF0EECF3A
:102F900006F0EECF07F0EECF08F0EFCF09F037ECF8
:102FA00020F005C0EDFF04C0EDFF03C0EDFF02C03F
:102FB000EFFF010EDB0638D70A0EE66EA2DDE55202
:102FC000020EE15C02E2E16AE552E16EE552E7CF12
:042FD000D9FF120013
:0C2FD400D9CFE6FFE1CFD9FFD59EFD0E5E
:102FE000DBCFA9F1FE0EDBCFAAF1D59C13681468E4
:102FF000156AA9C116F0AAC117F0186A1650135C19
:10300000106E17501458116E18501558126E0C6A25
:10301000010E0D6E0E6A10C007F011C008F012C04C
:1030200009F0FEEC1EF00350D66E13681468156AA2
:10303000A9C116F0AAC117F0186A1650135C106ED9
:1030400017501458116E18501558126E0C6A010E54
:103050000D6E0E6A10C007F011C008F012C009F022
:10306000FEEC1EF007C010F008C011F009C012F00D
:103070000750D76ED59AD586F28AF294F184D58E10
:10308000E552E7CFD9FF1200D59E120013681468ED
:10309000156AA9C116F0AAC117F0186A1650135C78
:1030A000106E17501458116E18501558126E0C6A85
:1030B000010E0D6E0E6A10C007F011C008F012C0AC
:1030C00009F0FEEC1EF00350D66E13681468156A02
:1030D000A9C116F0AAC117F0186A1650135C106E39
:1030E00017501458116E18501558126E0C6A010EB4
:1030F0000D6E0E6A10C007F011C008F012C009F082
:10310000FEEC1EF007C010F008C011F009C012F06C
:103110000750D76ED58E1200D9CFE6FFE1CFD9FF89
:10312000CD90FD0EDBCFABF1FE0EDBCFACF1136823
:103130001468156AABC116F0ACC117F0186A1650C6
:10314000135C106E17501458116E18501558126EEB
:103150000C6A010E0D6E0E6A10C007F011C008F067
:1031600012C009F0FEEC1EF00750CF6E1368146811
:10317000156AABC116F0ACC117F0186A1650135C93
:10318000106E17501458116E18501558126E0C6AA4
:10319000010E0D6E0E6A10C007F011C008F012C0CB
:1031A00009F0FEEC1EF003C010F004C011F005C0E1
:1031B00012F00350CE6E9D809E909F90CD8ECD8C50
:1031C000CD98CD9ACD96CD92CD80E552E7CFD9FF5F
:1031D000120013681468156AABC116F0ACC117F081
:1031E000186A1650135C106E17501458116E185050
:1031F0001558126E0C6A010E0D6E0E6A10C007F0A3
:1032000011C008F012C009F0FEEC1EF00750CF6E9E
:1032100013681468156AABC116F0ACC117F0186AD0
:103220001650135C106E17501458116E1850155824
:10323000126E0C6A010E0D6E0E6A10C007F011C0FE
:1032400008F012C009F0FEEC1EF003C010F004C03C
:1032500011F005C012F00350CE6ECD801200CD905B
:103260001200D9CFE6FFE1CFD9FFCA94CC6AFE0E97
:10327000DB500101AD6FAE6BCB6E9D829E929F9233
:10328000CA90CA92CA84E552E7CFD9FF1200ADC1F5
:10329000CBFFCA841200CA941200D9CFE6FFE1CF57
:1032A000D9FFB190FD0EDBCFAFF1FE0EDBCFB0F159
:1032B00013681468156AAFC116F0B0C117F0186A28
:1032C0001650135C106E17501458116E1850155884
:1032D000126E0C6A010E0D6E0E6A10C007F011C05E
:1032E00008F012C009F0FEEC1EF00750B36E136830
:1032F0001468156AAFC116F0B0C117F0186A1650FD
:10330000135C106E17501458116E18501558126E29
:103310000C6A010E0D6E0E6A10C007F011C008F0A5
:1033200012C009F0FEEC1EF003C010F004C011F052
:1033300005C012F00350B26EA082A192A292B18E8B
:10334000B198B19AB192B180E552E7CFD9FF12009E
:1033500013681468156AAFC116F0B0C117F0186A87
:103360001650135C106E17501458116E18501558E3
:10337000126E0C6A010E0D6E0E6A10C007F011C0BD
:1033800008F012C009F0FEEC1EF00350B26E136894
:103390001468156AAFC116F0B0C117F0186A16505C
:1033A000135C106E17501458116E18501558126E89
:1033B0000C6A010E0D6E0E6A10C007F011C008F005
:1033C00012C009F0FEEC1EF007C010F008C011F0AA
:1033D00009C012F00750B36EB1801200B190120014
:1033E0000101B92B000EBA23C151B95DC251BA59BE
:1033F00004E3B96BBA6B010EB16F12000101BB2B74
:10340000000EBC23C351BB5DC451BC5904E3BB6B6C
:10341000BC6B010EB26F12000101BD2B000EBE236A
:10342000C551BD5DC651BE5904E3BD6BBE6B010EF7
:10343000B36F12000101BF2B000EC023C751BF5D47
:10344000C851C05904E3BF6BC06B010EB46F1200CA
:10345000D9CFE6FFE1CFD9FFFD0EDBCFC1F1FE0EE4
:10346000DBCFC2F10101B96BBA6BB16BE552E7CFAB
:10347000D9FF1200D9CFE6FFE1CFD9FFFD0EDBCF98
:10348000C3F1FE0EDBCFC4F1050E0D6E0E6AC3C193
:1034900008F0C4C109F0D8EC1EF008C0C3F109C09F
:1034A000C4F10101BB6BBC6BB26BE552E7CFD9FF36
:1034B0001200D9CFE6FFE1CFD9FFFD0EDBCFC7F178
:1034C000FE0EDBCFC8F10A0E0D6E0E6AC7C108F002
:1034D000C8C109F0D8EC1EF008C0C7F109C0C8F196
:1034E0000101BF6BC06BB46BE552E7CFD9FF12008F
:1034F000D9CFE6FFE1CFD9FF020EE126FE0EDB5069
:103500000F0BDF6EFE0EDB380F0B0A0D010EF3CF33
:10351000DBFFDB50DF24106E020EE15C02E2E16AA9
:10352000E552E16E1050E552E7CFD9FF1200D9CF36
:10353000E6FFE1CFD9FF020EE1260A0E106E0E6EF5
:10354000FE0EDBCF09F0C8EC20F00550DF6E0A0E4E
:10355000106E0E6EFE0EDBCF09F0C8EC20F00950A5
:10356000100D010EF3CFDBFFDB50DF24106E020ED7
:10357000E15C02E2E16AE552E16E1050E552E7CF0C
:10358000D9FF120094869488C79EC79CC690C692A5
:10359000C694C686310EC86EC68A1200D9CFE6FF21
:1035A000E1CFD9FF9E96FE0EDB50D00FC96E9EA6CE
:1035B000FED7E552E7CFD9FF1200D9CFE6FFE1CF22
:1035C000D9FF9E96FE0EDB50A00FC96E9EA6FED7B9
:1035D000E552E7CFD9FF12009E96C5809EA6FED782
:1035E00012009E96C5849EA6FED71200D9CFE6FF94
:1035F000E1CFD9FF9E96FE0EDB50C96E9EA6FED788
:10360000E552E7CFD9FF12009E96C5869EA6FED74B
:10361000C95012009E96C59AC5889EA6FED7120074
:103620009E96C58AC5889EA6FED71200D9CFE6FF12
:10363000E1CFD9FFD1DFE66AB1DFE5520001010E2B
:10364000FC6FE85004E0C550400BFAE0F8D7FE0EDE
:10365000DBCFE6FFCBDFE5520001010EFC6FE85047
:1036600004E0C550400BFAE0F8D7FD0EDBCFE6FFD3
:103670005EDFE552E66EBADFE5520001010EFC6F37
:10368000E85004E0C550400BFAE0F8D7AADFE55255
:10369000E7CFD9FF1200D9CFE6FFE1CFD9FF9CDFFA
:1036A000E66A8BDFE5520001010EFC6FE85004E092
:1036B000C550400BFAE0F8D7FE0EDBCFE6FF96DFF1
:1036C000E5520001010EFC6FE85004E0C550400BCC
:1036D000FAE0F8D7FD0EDBCF10F0FE0EDBCF11F0D5
:1036E0000001116A1050E66E81DFE5520001010E03
:1036F000FC6FE85004E0C550400BFAE0F8D7FC0E30
:10370000DBCFE6FF73DFE5520001010EFC6FE850EE
:1037100004E0C550400BFAE0F8D763DFE552E7CF8D
:10372000D9FF1200D9CFE6FFE1CFD9FFE65254DF2F
:10373000E66A34DFE5520001010EFC6FE85004E058
:10374000C550400BFAE0F8D7FE0EDBCFE6FF4EDFA8
:10375000E5520001010EFC6FE85004E0C550400B3B
:10376000FAE0F8D739DF010EE66E18DFE552000106
:10377000010EFC6FE85004E0C550400BFAE0F8D7AA
:1037800043DFDF6EDFCFE6FFB3DEE552DF6EDF50F3
:10379000E552E552E7CFD9FF1200D9CFE6FFE1CFDE
:1037A000D9FFE65219DFE66A08DFE5520001010E93
:1037B000FC6FE85004E0C550400BFAE0F8D7FE0E6D
:1037C000DBCFE6FF13DFE5520001010EFC6FE8508E
:1037D00004E0C550400BFAE0F8D7FD0EDBCF10F047
:1037E000FE0EDBCF11F00001116A1050E66EFEDE16
:1037F000E5520001010EFC6FE85004E0C550400B9B
:10380000FAE0F8D7E9DE010EE66ED7DEE5520001F8
:10381000010EFC6FE85004E0C550400BFAE0F8D709
:10382000F3DEDF6EDF50E552E552E7CFD9FF12003D
:103830005048415345325F59454C4C4F573A202030
:10384000005048415345315F5245442020203A20E2
:1038500020005048415345325F475245454E3A207B
:103860002020005048415345315F52454420203AC2
:10387000202020005048415345325F5245442020CB
:10388000203A2020005048415345315F59454C4C67
:103890004F573A2020005048415345325F5245442B
:1038A00020203A202020005048415345315F4752A4
:1038B00045454E3A20202000312E594553202020E6
:1038C0002020322E4E4F004C4F47204F5554203F62
:1038D000202020202020202020200050415353571A
:1038E0004F52442057524F4E4720200054494D45D7
:1038F0005F59454C4C4F575F323A20200054494D98
:10390000455F475245454E5F323A20202000202037
:1039100020202020202020202020202020202020A7
:1039200020200054494D455F59454C4C4F575F315D
:103930003A2020002020202020202020202020208D
:10394000202020202020200020312E2B202020206D
:1039500020202020322E2D200054494D455F475213
:1039600045454E5F313A2020200044414E474552A4
:103970002121212020202020202020202000202064
:103980005741524E494E472120202020202000330D
:103990002E59454C3120202020342E59454C3200E0
:1039A000312E4752453120202020322E47524532B9
:1039B0000020202020202020202020202020202027
:1039C0000020202020202020202020202020202017
:1039D0002000322E5741524E494E472020202020B1
:1039E0002020202020202000312E4348414E4745F2
:1039F0002054494D45202020202020202020002A2E
:103A000000454E5445522050415353574F52442085
:103A100020005052455353204220464F52205041DF
:103A20005353005355434345535346554C4C59212A
:103A3000202020202020200054494D45205550446E
:103A400041544544202020202020202000202020F8
:103A50002020202020202020354B4D2F480053507F
:103A6000454544204C494D49543A2020202000200F
:103A700020534954554154494F4E212020202000C5
:103A80002020454D455247454E43592020202020B7
:103A9000004F4B002020202020202020202020200C
:053AA0002020202000A1
:013AA5000020
:0A3AA600F28ED08EF28C1200F19C1B
:103AB000F292F2881200D8CFE4FFE0CFE4FFE46E88
:103AC000DACFE4FFE2CFDAFFE9CFE4FFEACFE4FFA9
:103AD000F6CFE4FFF7CFE4FFF5CFE4FFF3CFE4FF49
:103AE000F4CFE4FFFACFE4FF00EE00F0100EE8049C
:103AF00003E3EECFE4FFFBD700EE10F00A0EE8047C
:103B000003E3EECFE4FFFBD7E652F2A407D044EC88
:103B100018F0F29446EC18F0F0EC19F09EA007D0E3
:103B20002FEC19F09E90E9EC18F0FEEC19F09EA233
:103B300007D04BEC19F09E9247EC19F00CEC1AF000
:103B4000A1A207D0EEEC19F0A192A8EC19F01AECA2
:103B50001AF0F2B2F2929EAA03D09E9A46EC16F0A8
:103B6000E55200EE19F00A0EE80403E3E5CFEDFF9D
:103B7000FBD700EE0FF0100EE80403E3E5CFEDFFF6
:103B8000FBD7E5CFFAFFE5CFF4FFE5CFF3FFE5CFB5
:103B9000F5FFE5CFF7FFE5CFF6FFE5CFEAFFE5CF8D
:103BA000E9FFE5CFDAFFE550E5CFE0FFE5CFD8FF4D
:103BB0001000DACFE4FFE2CFDAFFE9CFE4FFEACF8B
:103BC000E4FFF6CFE4FFF7CFE4FFF5CFE4FFF3CF58
:103BD000E4FFF4CFE4FFFACFE4FF00EE00F0100EB4
:103BE000E80403E3EECFE4FFFBD700EE10F00A0E8B
:103BF000E80403E3EECFE4FFFBD7E652F2A407D0DC
:103C000044EC18F0F29446EC18F0F0EC19F09EA099
:103C100007D02FEC19F09E90E9EC18F0FEEC19F0AB
:103C20009EA207D04BEC19F09E9247EC19F00CECD9
:103C30001AF0A1A207D0EEEC19F0A192A8EC19F0AD
:103C40001AEC1AF0F2B2F2929EAA03D09E9A46ECB7
:103C500016F0E55200EE19F00A0EE80403E3E5CF92
:103C6000EDFFFBD700EE0FF0100EE80403E3E5CF05
:103C7000EDFFFBD7E5CFFAFFE5CFF4FFE5CFF3FF8C
:103C8000E5CFF5FFE5CFF7FFE5CFF6FFE5CFEAFF9C
:0A3C9000E5CFE9FFE5CFDAFF1100F0
:063C9A00D9CFE6FFE1CFE7
:103CA000D9FFE652AE50DF6E0101E551050A2AE068
:103CB000010A21E0070A11E0010A0AE0020A02E013
:103CC000010A2AE1FF0EDF5C28E1E86B020E22D038
:103CD000FF0EDF5C15E1030E1DD0E851EA6A010F0B
:103CE000E96E0F0EEA22DFCFEFFFE82BEA51E85D25
:103CF00014E3040E0FD0FE0EDF5C02E1050E0AD0C5
:103D0000010E08D0FE0EDF5C04E1010EE66FE56BEC
:103D100004D0010EE56F01D0E56BE552E552E7CF27
:103D2000D9FF120012000101E60541E1940EE66E92
:103D30003A0EE66EE66AE66A2AEC11F0E552E552C2
:103D4000E552E5520F01006B0101EA510F01005DE0
:103D500021E20051EA6A010FE96E0F0EEA22EFCF6D
:103D600010F0116A126A136A10C0E6FF11C0E6FF74
:103D700012C0E6FF13C0E6FF030E0003F350E66E29
:103D8000E66A03EC10F0146E060EE15E14500F01AB
:103D9000002BDAD7910EE66E3A0EE66E0E0EE66E48
:103DA000E66A2AEC11F0E552E552E552E5521200BE
:103DB000006A0EAEE1EF1EF00D6C0E1EE86A0E22D8
:103DC000001E09AEE9EF1EF0086C091EE86A092220
:103DD000001E94EC20F009BEF9EF1EF000AE000CBE
:103DE000086C091EE86A0922046C051EE86A0522AF
:103DF000000C00BEF0EF1EF00188FF0C006A0EAE52
:103E000009EF1FF00C6C0D1E0E1EE86A0D220E222B
:103E1000001E09AE13EF1FF0076C081E091EE86AAA
:103E200008220922001E5BEC20F009BE26EF1FF0DD
:103E300000AE000C076C081E091EE86A0822092261
:103E4000036C041E051E04220522000C00BE1AEF9E
:063E50001FF00188FF0CC9
:0A3E56001E0EF66E000EF76E000E51
:103E6000F86E01010900F550FB6F0900F550FC6F79
:103E700003E1FB6701D03DD00900F550F66F090062
:103E8000F550F76F0900F550F86F09000900F5507B
:103E9000E96E0900F550EA6E090009000900F550C5
:103EA000F96F0900F550FA6F09000900F6CFFDF12E
:103EB000F7CFFEF1F8CFFFF1F6C1F6FFF7C1F7FF3C
:103EC000F8C1F8FF0101F95302E1FA5307E00900D4
:103ED000F550EE6EF907F8E2FA07F9D7FDC1F6FFE3
:103EE000FEC1F7FFFFC1F8FF0101FB07000EFC5BFD
:043EF000BFD7120026
:0C3EF400010E926E0E0EC16EC26A040E2A
:103F0000C06EC2801200D9CFE6FFE1CFD9FF020E0A
:103F1000E126DE6ADD6AC282C2B2FED7C450DE6E1E
:103F2000DD6ADECF12F0DDCF13F0D89012361336F3
:103F3000D89012361336060EC3CFE7FF070B04E006
:103F4000E742E79EE806FCE1E7501224106E000EFF
:103F5000132010C0DEFFDD6EDECFC9F1DDCFCAF168
:103F6000DECF10F0DDCF11F010C0F3FF11C0F4FF71
:103F7000020EE15C02E2E16AE552E16EE552E7CF52
:043F8000D9FF120053
:0C3F8400D9CFE6FFE1CFD9FFE652DF6A9B
:103F9000DF6ADFCF10F0FA0EDB50E76E1018E8AEE4
:103FA00002D0E73402D0E750105C23E2DFCF11F0FB
:103FB000126A11BE1268FD0EDB501124E96EFE0E6E
:103FC000DB501220EA6EEFCF10F0DFCF13F0146A4F
:103FD00013BE1468FB0EDB501324E96EFC0EDB509D
:103FE0001420EA6EEF50105C02E0010E03D0DF2ACD
:0E3FF000D0D7000EE552E552E7CFD9FF120000
:023FFE0006506B
:104000000B02F3CF02F0F4CF03F00C02F3500326BF
:10401000000EF420046E06500D02F3500426000E2C
:10402000F420056E06500E02F350052607500B02D1
:10403000F3500326F4500422000E052207500C0210
:10404000F3500426F450052207500D02F3500526C4
:1040500008500B02F3500426F450052208500C02BD
:0E406000F350052609500B02F35005261200FE
:02406E00056AE1
:10407000046A036A026A200EE76ED8900636073695
:104080000836093602360336043605360B50025C14
:104090000C5003580D5004580E50055809E30B50AE
:1040A000025E0C50035A0D50045A0E50055A062A4F
:0640B000E72EE4D7120028
:0A40B600056A046A036A180EE76E3B
:1040C000D8900736083609360336043605360C50C4
:1040D000035C0D5004580E50055807E30C50035E66
:1040E0000D50045A0E50055A072AE72EEAD712003F
:1040F000CA94CA90CA829B0ECB6EBD98BD9ABE6A06
:10410000BD9CBD9EBD90BD92BD84BD869494CA8465
:104110001200D9CFE6FFE1CFD9FFFE0EDB50BE6E15
:08412000E552E7CFD9FF1200C0
:08412800056A046A100EE76E3F
:10413000D89008360936043605360D50045C0E500A
:10414000055805E30D50045E0E50055A082AE72E67
:04415000F0D7120092
:0C415400800EF36E00EE00F00F0E01D89C
:104160001200EA6002D0EE6AFCD7F350E960120058
:04417000EE6AFCD720
:0C4174001EEE00F02EEE00F0F86A019C38
:104180002BEC1FF003EC00F046EC00F0FBD7120024
:10419000056A080EE76ED890093605360E50055CA4
:0C41A00002E3056E092AE72EF7D7120093
:0441AC00000000000F
:1041B00000000000000000000000000000000000FF
:0C41C000000000000000000000000000F3
:0441CC0000000000EF
:1041D00000000000000000000000000000000000DF
:0C41E000000000000100010001000100CF
:0441EC0000000100CE
:0F41F000000000050500000000000000000000B6
:0141FF0001BE
:1042000002040810204080000000000000000001AF
:1042100002034104050642070809432A00454401F8
:104220000203040204010203030303040806080551
:10423000414243FF000000FF0A030A0300000000A0
:10424000000000000000000000000000000000006E
:10425000000000000000000000000000000000213D
:0D4260007365742D637554696D652D000044
:03426D000000004E
:104270000000000000101010101010101018181876
:1042800018181818181C1C1C1C1C1C1C1C1E1E1E7C
:104290001E1E1E1E1E1F1F1F1F1F1F1F1F00000090
:1042A000000000000000000000000000000000000E
:1042B00000000000000000000000000000000000FE
:0E42C0000000000000000000000000000000F0
:0242CE000000EE
:1042D00000D0002222220725091000010000000062
:0942E000000000000000000000D5
:0742E90000000000000000CE
:1042F00000000000000000000000000000000000BE
:1043000000000000000000000010204080010204B6
:0143100008A4
:020000040030CA
:0100010002FC
:0100020003FA
:010003001EDE
:010005008179
:010006008178
:010008000FE8
:01000900C036
:01000A000FE6
:01000B00E014
:01000C000FE4
:01000D0040B2
:00000001FF
